{
	"lecture3/MessageBoard.sol": {
		"MessageBoard": {
			"abi": [
				{
					"inputs": [
						{
							"internalType": "string",
							"name": "_message",
							"type": "string"
						}
					],
					"name": "addMessage",
					"outputs": [],
					"stateMutability": "nonpayable",
					"type": "function"
				},
				{
					"inputs": [
						{
							"internalType": "address",
							"name": "user",
							"type": "address"
						},
						{
							"internalType": "uint256",
							"name": "",
							"type": "uint256"
						}
					],
					"name": "messages",
					"outputs": [
						{
							"internalType": "string",
							"name": "",
							"type": "string"
						}
					],
					"stateMutability": "view",
					"type": "function"
				},
				{
					"inputs": [
						{
							"internalType": "string",
							"name": "_message",
							"type": "string"
						}
					],
					"name": "previewMessage",
					"outputs": [
						{
							"internalType": "string",
							"name": "",
							"type": "string"
						}
					],
					"stateMutability": "pure",
					"type": "function"
				}
			],
			"devdoc": {
				"kind": "dev",
				"methods": {},
				"version": 1
			},
			"evm": {
				"assembly": "    /* \"lecture3/MessageBoard.sol\":60:410  contract MessageBoard {... */\n  mstore(0x40, 0x80)\n  callvalue\n  dup1\n  iszero\n  tag_1\n  jumpi\n  revert(0x00, 0x00)\ntag_1:\n  pop\n  dataSize(sub_0)\n  dup1\n  dataOffset(sub_0)\n  0x00\n  codecopy\n  0x00\n  return\nstop\n\nsub_0: assembly {\n        /* \"lecture3/MessageBoard.sol\":60:410  contract MessageBoard {... */\n      mstore(0x40, 0x80)\n      callvalue\n      dup1\n      iszero\n      tag_1\n      jumpi\n      revert(0x00, 0x00)\n    tag_1:\n      pop\n      jumpi(tag_2, lt(calldatasize, 0x04))\n      shr(0xe0, calldataload(0x00))\n      dup1\n      0x64682bf0\n      eq\n      tag_3\n      jumpi\n      dup1\n      0x6a226a49\n      eq\n      tag_4\n      jumpi\n      dup1\n      0xc45d9bea\n      eq\n      tag_5\n      jumpi\n    tag_2:\n      revert(0x00, 0x00)\n        /* \"lecture3/MessageBoard.sol\":262:407  function previewMessage(string memory _message) external pure returns(string memory) {... */\n    tag_3:\n      tag_6\n      0x04\n      dup1\n      calldatasize\n      sub\n      dup2\n      add\n      swap1\n      tag_7\n      swap2\n      swap1\n      tag_8\n      jump\t// in\n    tag_7:\n      tag_9\n      jump\t// in\n    tag_6:\n      mload(0x40)\n      tag_10\n      swap2\n      swap1\n      tag_11\n      jump\t// in\n    tag_10:\n      mload(0x40)\n      dup1\n      swap2\n      sub\n      swap1\n      return\n        /* \"lecture3/MessageBoard.sol\":147:254  function addMessage(string memory _message) external {... */\n    tag_4:\n      tag_12\n      0x04\n      dup1\n      calldatasize\n      sub\n      dup2\n      add\n      swap1\n      tag_13\n      swap2\n      swap1\n      tag_8\n      jump\t// in\n    tag_13:\n      tag_14\n      jump\t// in\n    tag_12:\n      stop\n        /* \"lecture3/MessageBoard.sol\":89:138  mapping(address user => string[]) public messages */\n    tag_5:\n      tag_15\n      0x04\n      dup1\n      calldatasize\n      sub\n      dup2\n      add\n      swap1\n      tag_16\n      swap2\n      swap1\n      tag_17\n      jump\t// in\n    tag_16:\n      tag_18\n      jump\t// in\n    tag_15:\n      mload(0x40)\n      tag_19\n      swap2\n      swap1\n      tag_11\n      jump\t// in\n    tag_19:\n      mload(0x40)\n      dup1\n      swap2\n      sub\n      swap1\n      return\n        /* \"lecture3/MessageBoard.sol\":262:407  function previewMessage(string memory _message) external pure returns(string memory) {... */\n    tag_9:\n        /* \"lecture3/MessageBoard.sol\":332:345  string memory */\n      0x60\n        /* \"lecture3/MessageBoard.sol\":390:398  _message */\n      dup2\n        /* \"lecture3/MessageBoard.sol\":365:399  string.concat(\"Draft: \", _message) */\n      add(0x20, mload(0x40))\n      tag_21\n      swap2\n      swap1\n      tag_22\n      jump\t// in\n    tag_21:\n      mload(0x40)\n      0x20\n      dup2\n      dup4\n      sub\n      sub\n      dup2\n      mstore\n      swap1\n      0x40\n      mstore\n        /* \"lecture3/MessageBoard.sol\":358:399  return string.concat(\"Draft: \", _message) */\n      swap1\n      pop\n        /* \"lecture3/MessageBoard.sol\":262:407  function previewMessage(string memory _message) external pure returns(string memory) {... */\n      swap2\n      swap1\n      pop\n      jump\t// out\n        /* \"lecture3/MessageBoard.sol\":147:254  function addMessage(string memory _message) external {... */\n    tag_14:\n        /* \"lecture3/MessageBoard.sol\":211:219  messages */\n      0x00\n        /* \"lecture3/MessageBoard.sol\":211:231  messages[msg.sender] */\n      0x00\n        /* \"lecture3/MessageBoard.sol\":220:230  msg.sender */\n      caller\n        /* \"lecture3/MessageBoard.sol\":211:231  messages[msg.sender] */\n      0xffffffffffffffffffffffffffffffffffffffff\n      and\n      0xffffffffffffffffffffffffffffffffffffffff\n      and\n      dup2\n      mstore\n      0x20\n      add\n      swap1\n      dup2\n      mstore\n      0x20\n      add\n      0x00\n      keccak256\n        /* \"lecture3/MessageBoard.sol\":237:245  _message */\n      dup2\n        /* \"lecture3/MessageBoard.sol\":211:246  messages[msg.sender].push(_message) */\n      swap1\n      dup1\n      0x01\n      dup2\n      sload\n      add\n      dup1\n      dup3\n      sstore\n      dup1\n      swap2\n      pop\n      pop\n      0x01\n      swap1\n      sub\n      swap1\n      0x00\n      mstore\n      keccak256(0x00, 0x20)\n      add\n      0x00\n      swap1\n      swap2\n      swap1\n      swap2\n      swap1\n      swap2\n      pop\n      swap1\n      dup2\n      tag_25\n      swap2\n      swap1\n      tag_26\n      jump\t// in\n    tag_25:\n      pop\n        /* \"lecture3/MessageBoard.sol\":147:254  function addMessage(string memory _message) external {... */\n      pop\n      jump\t// out\n        /* \"lecture3/MessageBoard.sol\":89:138  mapping(address user => string[]) public messages */\n    tag_18:\n      mstore(0x20, 0x00)\n      dup2\n      0x00\n      mstore\n      keccak256(0x00, 0x40)\n      dup2\n      dup2\n      sload\n      dup2\n      lt\n      tag_27\n      jumpi\n      0x00\n      dup1\n      revert\n    tag_27:\n      swap1\n      0x00\n      mstore\n      keccak256(0x00, 0x20)\n      add\n      0x00\n      swap2\n      pop\n      swap2\n      pop\n      pop\n      dup1\n      sload\n      tag_29\n      swap1\n      tag_30\n      jump\t// in\n    tag_29:\n      dup1\n      0x1f\n      add\n      0x20\n      dup1\n      swap2\n      div\n      mul\n      0x20\n      add\n      mload(0x40)\n      swap1\n      dup2\n      add\n      0x40\n      mstore\n      dup1\n      swap3\n      swap2\n      swap1\n      dup2\n      dup2\n      mstore\n      0x20\n      add\n      dup3\n      dup1\n      sload\n      tag_31\n      swap1\n      tag_30\n      jump\t// in\n    tag_31:\n      dup1\n      iszero\n      tag_32\n      jumpi\n      dup1\n      0x1f\n      lt\n      tag_33\n      jumpi\n      0x0100\n      dup1\n      dup4\n      sload\n      div\n      mul\n      dup4\n      mstore\n      swap2\n      0x20\n      add\n      swap2\n      jump(tag_32)\n    tag_33:\n      dup3\n      add\n      swap2\n      swap1\n      0x00\n      mstore\n      keccak256(0x00, 0x20)\n      swap1\n    tag_34:\n      dup2\n      sload\n      dup2\n      mstore\n      swap1\n      0x01\n      add\n      swap1\n      0x20\n      add\n      dup1\n      dup4\n      gt\n      tag_34\n      jumpi\n      dup3\n      swap1\n      sub\n      0x1f\n      and\n      dup3\n      add\n      swap2\n    tag_32:\n      pop\n      pop\n      pop\n      pop\n      pop\n      dup2\n      jump\t// out\n        /* \"#utility.yul\":7:82   */\n    tag_35:\n        /* \"#utility.yul\":40:46   */\n      0x00\n        /* \"#utility.yul\":73:75   */\n      0x40\n        /* \"#utility.yul\":67:76   */\n      mload\n        /* \"#utility.yul\":57:76   */\n      swap1\n      pop\n        /* \"#utility.yul\":7:82   */\n      swap1\n      jump\t// out\n        /* \"#utility.yul\":88:205   */\n    tag_36:\n        /* \"#utility.yul\":197:198   */\n      0x00\n        /* \"#utility.yul\":194:195   */\n      0x00\n        /* \"#utility.yul\":187:199   */\n      revert\n        /* \"#utility.yul\":211:328   */\n    tag_37:\n        /* \"#utility.yul\":320:321   */\n      0x00\n        /* \"#utility.yul\":317:318   */\n      0x00\n        /* \"#utility.yul\":310:322   */\n      revert\n        /* \"#utility.yul\":334:451   */\n    tag_38:\n        /* \"#utility.yul\":443:444   */\n      0x00\n        /* \"#utility.yul\":440:441   */\n      0x00\n        /* \"#utility.yul\":433:445   */\n      revert\n        /* \"#utility.yul\":457:574   */\n    tag_39:\n        /* \"#utility.yul\":566:567   */\n      0x00\n        /* \"#utility.yul\":563:564   */\n      0x00\n        /* \"#utility.yul\":556:568   */\n      revert\n        /* \"#utility.yul\":580:682   */\n    tag_40:\n        /* \"#utility.yul\":621:627   */\n      0x00\n        /* \"#utility.yul\":672:674   */\n      0x1f\n        /* \"#utility.yul\":668:675   */\n      not\n        /* \"#utility.yul\":663:665   */\n      0x1f\n        /* \"#utility.yul\":656:661   */\n      dup4\n        /* \"#utility.yul\":652:666   */\n      add\n        /* \"#utility.yul\":648:676   */\n      and\n        /* \"#utility.yul\":638:676   */\n      swap1\n      pop\n        /* \"#utility.yul\":580:682   */\n      swap2\n      swap1\n      pop\n      jump\t// out\n        /* \"#utility.yul\":688:868   */\n    tag_41:\n        /* \"#utility.yul\":736:813   */\n      0x4e487b7100000000000000000000000000000000000000000000000000000000\n        /* \"#utility.yul\":733:734   */\n      0x00\n        /* \"#utility.yul\":726:814   */\n      mstore\n        /* \"#utility.yul\":833:837   */\n      0x41\n        /* \"#utility.yul\":830:831   */\n      0x04\n        /* \"#utility.yul\":823:838   */\n      mstore\n        /* \"#utility.yul\":857:861   */\n      0x24\n        /* \"#utility.yul\":854:855   */\n      0x00\n        /* \"#utility.yul\":847:862   */\n      revert\n        /* \"#utility.yul\":874:1155   */\n    tag_42:\n        /* \"#utility.yul\":957:984   */\n      tag_87\n        /* \"#utility.yul\":979:983   */\n      dup3\n        /* \"#utility.yul\":957:984   */\n      tag_40\n      jump\t// in\n    tag_87:\n        /* \"#utility.yul\":949:955   */\n      dup2\n        /* \"#utility.yul\":945:985   */\n      add\n        /* \"#utility.yul\":1087:1093   */\n      dup2\n        /* \"#utility.yul\":1075:1085   */\n      dup2\n        /* \"#utility.yul\":1072:1094   */\n      lt\n        /* \"#utility.yul\":1051:1069   */\n      0xffffffffffffffff\n        /* \"#utility.yul\":1039:1049   */\n      dup3\n        /* \"#utility.yul\":1036:1070   */\n      gt\n        /* \"#utility.yul\":1033:1095   */\n      or\n        /* \"#utility.yul\":1030:1118   */\n      iszero\n      tag_88\n      jumpi\n        /* \"#utility.yul\":1098:1116   */\n      tag_89\n      tag_41\n      jump\t// in\n    tag_89:\n        /* \"#utility.yul\":1030:1118   */\n    tag_88:\n        /* \"#utility.yul\":1138:1148   */\n      dup1\n        /* \"#utility.yul\":1134:1136   */\n      0x40\n        /* \"#utility.yul\":1127:1149   */\n      mstore\n        /* \"#utility.yul\":917:1155   */\n      pop\n        /* \"#utility.yul\":874:1155   */\n      pop\n      pop\n      jump\t// out\n        /* \"#utility.yul\":1161:1290   */\n    tag_43:\n        /* \"#utility.yul\":1195:1201   */\n      0x00\n        /* \"#utility.yul\":1222:1242   */\n      tag_91\n      tag_35\n      jump\t// in\n    tag_91:\n        /* \"#utility.yul\":1212:1242   */\n      swap1\n      pop\n        /* \"#utility.yul\":1251:1284   */\n      tag_92\n        /* \"#utility.yul\":1279:1283   */\n      dup3\n        /* \"#utility.yul\":1271:1277   */\n      dup3\n        /* \"#utility.yul\":1251:1284   */\n      tag_42\n      jump\t// in\n    tag_92:\n        /* \"#utility.yul\":1161:1290   */\n      swap2\n      swap1\n      pop\n      jump\t// out\n        /* \"#utility.yul\":1296:1604   */\n    tag_44:\n        /* \"#utility.yul\":1358:1362   */\n      0x00\n        /* \"#utility.yul\":1448:1466   */\n      0xffffffffffffffff\n        /* \"#utility.yul\":1440:1446   */\n      dup3\n        /* \"#utility.yul\":1437:1467   */\n      gt\n        /* \"#utility.yul\":1434:1490   */\n      iszero\n      tag_94\n      jumpi\n        /* \"#utility.yul\":1470:1488   */\n      tag_95\n      tag_41\n      jump\t// in\n    tag_95:\n        /* \"#utility.yul\":1434:1490   */\n    tag_94:\n        /* \"#utility.yul\":1508:1537   */\n      tag_96\n        /* \"#utility.yul\":1530:1536   */\n      dup3\n        /* \"#utility.yul\":1508:1537   */\n      tag_40\n      jump\t// in\n    tag_96:\n        /* \"#utility.yul\":1500:1537   */\n      swap1\n      pop\n        /* \"#utility.yul\":1592:1596   */\n      0x20\n        /* \"#utility.yul\":1586:1590   */\n      dup2\n        /* \"#utility.yul\":1582:1597   */\n      add\n        /* \"#utility.yul\":1574:1597   */\n      swap1\n      pop\n        /* \"#utility.yul\":1296:1604   */\n      swap2\n      swap1\n      pop\n      jump\t// out\n        /* \"#utility.yul\":1610:1758   */\n    tag_45:\n        /* \"#utility.yul\":1708:1714   */\n      dup3\n        /* \"#utility.yul\":1703:1706   */\n      dup2\n        /* \"#utility.yul\":1698:1701   */\n      dup4\n        /* \"#utility.yul\":1685:1715   */\n      calldatacopy\n        /* \"#utility.yul\":1749:1750   */\n      0x00\n        /* \"#utility.yul\":1740:1746   */\n      dup4\n        /* \"#utility.yul\":1735:1738   */\n      dup4\n        /* \"#utility.yul\":1731:1747   */\n      add\n        /* \"#utility.yul\":1724:1751   */\n      mstore\n        /* \"#utility.yul\":1610:1758   */\n      pop\n      pop\n      pop\n      jump\t// out\n        /* \"#utility.yul\":1764:2189   */\n    tag_46:\n        /* \"#utility.yul\":1842:1847   */\n      0x00\n        /* \"#utility.yul\":1867:1933   */\n      tag_99\n        /* \"#utility.yul\":1883:1932   */\n      tag_100\n        /* \"#utility.yul\":1925:1931   */\n      dup5\n        /* \"#utility.yul\":1883:1932   */\n      tag_44\n      jump\t// in\n    tag_100:\n        /* \"#utility.yul\":1867:1933   */\n      tag_43\n      jump\t// in\n    tag_99:\n        /* \"#utility.yul\":1858:1933   */\n      swap1\n      pop\n        /* \"#utility.yul\":1956:1962   */\n      dup3\n        /* \"#utility.yul\":1949:1954   */\n      dup2\n        /* \"#utility.yul\":1942:1963   */\n      mstore\n        /* \"#utility.yul\":1994:1998   */\n      0x20\n        /* \"#utility.yul\":1987:1992   */\n      dup2\n        /* \"#utility.yul\":1983:1999   */\n      add\n        /* \"#utility.yul\":2032:2035   */\n      dup5\n        /* \"#utility.yul\":2023:2029   */\n      dup5\n        /* \"#utility.yul\":2018:2021   */\n      dup5\n        /* \"#utility.yul\":2014:2030   */\n      add\n        /* \"#utility.yul\":2011:2036   */\n      gt\n        /* \"#utility.yul\":2008:2120   */\n      iszero\n      tag_101\n      jumpi\n        /* \"#utility.yul\":2039:2118   */\n      tag_102\n      tag_39\n      jump\t// in\n    tag_102:\n        /* \"#utility.yul\":2008:2120   */\n    tag_101:\n        /* \"#utility.yul\":2129:2183   */\n      tag_103\n        /* \"#utility.yul\":2176:2182   */\n      dup5\n        /* \"#utility.yul\":2171:2174   */\n      dup3\n        /* \"#utility.yul\":2166:2169   */\n      dup6\n        /* \"#utility.yul\":2129:2183   */\n      tag_45\n      jump\t// in\n    tag_103:\n        /* \"#utility.yul\":1848:2189   */\n      pop\n        /* \"#utility.yul\":1764:2189   */\n      swap4\n      swap3\n      pop\n      pop\n      pop\n      jump\t// out\n        /* \"#utility.yul\":2209:2549   */\n    tag_47:\n        /* \"#utility.yul\":2265:2270   */\n      0x00\n        /* \"#utility.yul\":2314:2317   */\n      dup3\n        /* \"#utility.yul\":2307:2311   */\n      0x1f\n        /* \"#utility.yul\":2299:2305   */\n      dup4\n        /* \"#utility.yul\":2295:2312   */\n      add\n        /* \"#utility.yul\":2291:2318   */\n      slt\n        /* \"#utility.yul\":2281:2403   */\n      tag_105\n      jumpi\n        /* \"#utility.yul\":2322:2401   */\n      tag_106\n      tag_38\n      jump\t// in\n    tag_106:\n        /* \"#utility.yul\":2281:2403   */\n    tag_105:\n        /* \"#utility.yul\":2439:2445   */\n      dup2\n        /* \"#utility.yul\":2426:2446   */\n      calldataload\n        /* \"#utility.yul\":2464:2543   */\n      tag_107\n        /* \"#utility.yul\":2539:2542   */\n      dup5\n        /* \"#utility.yul\":2531:2537   */\n      dup3\n        /* \"#utility.yul\":2524:2528   */\n      0x20\n        /* \"#utility.yul\":2516:2522   */\n      dup7\n        /* \"#utility.yul\":2512:2529   */\n      add\n        /* \"#utility.yul\":2464:2543   */\n      tag_46\n      jump\t// in\n    tag_107:\n        /* \"#utility.yul\":2455:2543   */\n      swap2\n      pop\n        /* \"#utility.yul\":2271:2549   */\n      pop\n        /* \"#utility.yul\":2209:2549   */\n      swap3\n      swap2\n      pop\n      pop\n      jump\t// out\n        /* \"#utility.yul\":2555:3064   */\n    tag_8:\n        /* \"#utility.yul\":2624:2630   */\n      0x00\n        /* \"#utility.yul\":2673:2675   */\n      0x20\n        /* \"#utility.yul\":2661:2670   */\n      dup3\n        /* \"#utility.yul\":2652:2659   */\n      dup5\n        /* \"#utility.yul\":2648:2671   */\n      sub\n        /* \"#utility.yul\":2644:2676   */\n      slt\n        /* \"#utility.yul\":2641:2760   */\n      iszero\n      tag_109\n      jumpi\n        /* \"#utility.yul\":2679:2758   */\n      tag_110\n      tag_36\n      jump\t// in\n    tag_110:\n        /* \"#utility.yul\":2641:2760   */\n    tag_109:\n        /* \"#utility.yul\":2827:2828   */\n      0x00\n        /* \"#utility.yul\":2816:2825   */\n      dup3\n        /* \"#utility.yul\":2812:2829   */\n      add\n        /* \"#utility.yul\":2799:2830   */\n      calldataload\n        /* \"#utility.yul\":2857:2875   */\n      0xffffffffffffffff\n        /* \"#utility.yul\":2849:2855   */\n      dup2\n        /* \"#utility.yul\":2846:2876   */\n      gt\n        /* \"#utility.yul\":2843:2960   */\n      iszero\n      tag_111\n      jumpi\n        /* \"#utility.yul\":2879:2958   */\n      tag_112\n      tag_37\n      jump\t// in\n    tag_112:\n        /* \"#utility.yul\":2843:2960   */\n    tag_111:\n        /* \"#utility.yul\":2984:3047   */\n      tag_113\n        /* \"#utility.yul\":3039:3046   */\n      dup5\n        /* \"#utility.yul\":3030:3036   */\n      dup3\n        /* \"#utility.yul\":3019:3028   */\n      dup6\n        /* \"#utility.yul\":3015:3037   */\n      add\n        /* \"#utility.yul\":2984:3047   */\n      tag_47\n      jump\t// in\n    tag_113:\n        /* \"#utility.yul\":2974:3047   */\n      swap2\n      pop\n        /* \"#utility.yul\":2770:3057   */\n      pop\n        /* \"#utility.yul\":2555:3064   */\n      swap3\n      swap2\n      pop\n      pop\n      jump\t// out\n        /* \"#utility.yul\":3070:3169   */\n    tag_48:\n        /* \"#utility.yul\":3122:3128   */\n      0x00\n        /* \"#utility.yul\":3156:3161   */\n      dup2\n        /* \"#utility.yul\":3150:3162   */\n      mload\n        /* \"#utility.yul\":3140:3162   */\n      swap1\n      pop\n        /* \"#utility.yul\":3070:3169   */\n      swap2\n      swap1\n      pop\n      jump\t// out\n        /* \"#utility.yul\":3175:3344   */\n    tag_49:\n        /* \"#utility.yul\":3259:3270   */\n      0x00\n        /* \"#utility.yul\":3293:3299   */\n      dup3\n        /* \"#utility.yul\":3288:3291   */\n      dup3\n        /* \"#utility.yul\":3281:3300   */\n      mstore\n        /* \"#utility.yul\":3333:3337   */\n      0x20\n        /* \"#utility.yul\":3328:3331   */\n      dup3\n        /* \"#utility.yul\":3324:3338   */\n      add\n        /* \"#utility.yul\":3309:3338   */\n      swap1\n      pop\n        /* \"#utility.yul\":3175:3344   */\n      swap3\n      swap2\n      pop\n      pop\n      jump\t// out\n        /* \"#utility.yul\":3350:3489   */\n    tag_50:\n        /* \"#utility.yul\":3439:3445   */\n      dup3\n        /* \"#utility.yul\":3434:3437   */\n      dup2\n        /* \"#utility.yul\":3429:3432   */\n      dup4\n        /* \"#utility.yul\":3423:3446   */\n      mcopy\n        /* \"#utility.yul\":3480:3481   */\n      0x00\n        /* \"#utility.yul\":3471:3477   */\n      dup4\n        /* \"#utility.yul\":3466:3469   */\n      dup4\n        /* \"#utility.yul\":3462:3478   */\n      add\n        /* \"#utility.yul\":3455:3482   */\n      mstore\n        /* \"#utility.yul\":3350:3489   */\n      pop\n      pop\n      pop\n      jump\t// out\n        /* \"#utility.yul\":3495:3872   */\n    tag_51:\n        /* \"#utility.yul\":3583:3586   */\n      0x00\n        /* \"#utility.yul\":3611:3650   */\n      tag_118\n        /* \"#utility.yul\":3644:3649   */\n      dup3\n        /* \"#utility.yul\":3611:3650   */\n      tag_48\n      jump\t// in\n    tag_118:\n        /* \"#utility.yul\":3666:3737   */\n      tag_119\n        /* \"#utility.yul\":3730:3736   */\n      dup2\n        /* \"#utility.yul\":3725:3728   */\n      dup6\n        /* \"#utility.yul\":3666:3737   */\n      tag_49\n      jump\t// in\n    tag_119:\n        /* \"#utility.yul\":3659:3737   */\n      swap4\n      pop\n        /* \"#utility.yul\":3746:3811   */\n      tag_120\n        /* \"#utility.yul\":3804:3810   */\n      dup2\n        /* \"#utility.yul\":3799:3802   */\n      dup6\n        /* \"#utility.yul\":3792:3796   */\n      0x20\n        /* \"#utility.yul\":3785:3790   */\n      dup7\n        /* \"#utility.yul\":3781:3797   */\n      add\n        /* \"#utility.yul\":3746:3811   */\n      tag_50\n      jump\t// in\n    tag_120:\n        /* \"#utility.yul\":3836:3865   */\n      tag_121\n        /* \"#utility.yul\":3858:3864   */\n      dup2\n        /* \"#utility.yul\":3836:3865   */\n      tag_40\n      jump\t// in\n    tag_121:\n        /* \"#utility.yul\":3831:3834   */\n      dup5\n        /* \"#utility.yul\":3827:3866   */\n      add\n        /* \"#utility.yul\":3820:3866   */\n      swap2\n      pop\n        /* \"#utility.yul\":3587:3872   */\n      pop\n        /* \"#utility.yul\":3495:3872   */\n      swap3\n      swap2\n      pop\n      pop\n      jump\t// out\n        /* \"#utility.yul\":3878:4191   */\n    tag_11:\n        /* \"#utility.yul\":3991:3995   */\n      0x00\n        /* \"#utility.yul\":4029:4031   */\n      0x20\n        /* \"#utility.yul\":4018:4027   */\n      dup3\n        /* \"#utility.yul\":4014:4032   */\n      add\n        /* \"#utility.yul\":4006:4032   */\n      swap1\n      pop\n        /* \"#utility.yul\":4078:4087   */\n      dup2\n        /* \"#utility.yul\":4072:4076   */\n      dup2\n        /* \"#utility.yul\":4068:4088   */\n      sub\n        /* \"#utility.yul\":4064:4065   */\n      0x00\n        /* \"#utility.yul\":4053:4062   */\n      dup4\n        /* \"#utility.yul\":4049:4066   */\n      add\n        /* \"#utility.yul\":4042:4089   */\n      mstore\n        /* \"#utility.yul\":4106:4184   */\n      tag_123\n        /* \"#utility.yul\":4179:4183   */\n      dup2\n        /* \"#utility.yul\":4170:4176   */\n      dup5\n        /* \"#utility.yul\":4106:4184   */\n      tag_51\n      jump\t// in\n    tag_123:\n        /* \"#utility.yul\":4098:4184   */\n      swap1\n      pop\n        /* \"#utility.yul\":3878:4191   */\n      swap3\n      swap2\n      pop\n      pop\n      jump\t// out\n        /* \"#utility.yul\":4197:4323   */\n    tag_52:\n        /* \"#utility.yul\":4234:4241   */\n      0x00\n        /* \"#utility.yul\":4274:4316   */\n      0xffffffffffffffffffffffffffffffffffffffff\n        /* \"#utility.yul\":4267:4272   */\n      dup3\n        /* \"#utility.yul\":4263:4317   */\n      and\n        /* \"#utility.yul\":4252:4317   */\n      swap1\n      pop\n        /* \"#utility.yul\":4197:4323   */\n      swap2\n      swap1\n      pop\n      jump\t// out\n        /* \"#utility.yul\":4329:4425   */\n    tag_53:\n        /* \"#utility.yul\":4366:4373   */\n      0x00\n        /* \"#utility.yul\":4395:4419   */\n      tag_126\n        /* \"#utility.yul\":4413:4418   */\n      dup3\n        /* \"#utility.yul\":4395:4419   */\n      tag_52\n      jump\t// in\n    tag_126:\n        /* \"#utility.yul\":4384:4419   */\n      swap1\n      pop\n        /* \"#utility.yul\":4329:4425   */\n      swap2\n      swap1\n      pop\n      jump\t// out\n        /* \"#utility.yul\":4431:4553   */\n    tag_54:\n        /* \"#utility.yul\":4504:4528   */\n      tag_128\n        /* \"#utility.yul\":4522:4527   */\n      dup2\n        /* \"#utility.yul\":4504:4528   */\n      tag_53\n      jump\t// in\n    tag_128:\n        /* \"#utility.yul\":4497:4502   */\n      dup2\n        /* \"#utility.yul\":4494:4529   */\n      eq\n        /* \"#utility.yul\":4484:4547   */\n      tag_129\n      jumpi\n        /* \"#utility.yul\":4543:4544   */\n      0x00\n        /* \"#utility.yul\":4540:4541   */\n      0x00\n        /* \"#utility.yul\":4533:4545   */\n      revert\n        /* \"#utility.yul\":4484:4547   */\n    tag_129:\n        /* \"#utility.yul\":4431:4553   */\n      pop\n      jump\t// out\n        /* \"#utility.yul\":4559:4698   */\n    tag_55:\n        /* \"#utility.yul\":4605:4610   */\n      0x00\n        /* \"#utility.yul\":4643:4649   */\n      dup2\n        /* \"#utility.yul\":4630:4650   */\n      calldataload\n        /* \"#utility.yul\":4621:4650   */\n      swap1\n      pop\n        /* \"#utility.yul\":4659:4692   */\n      tag_131\n        /* \"#utility.yul\":4686:4691   */\n      dup2\n        /* \"#utility.yul\":4659:4692   */\n      tag_54\n      jump\t// in\n    tag_131:\n        /* \"#utility.yul\":4559:4698   */\n      swap3\n      swap2\n      pop\n      pop\n      jump\t// out\n        /* \"#utility.yul\":4704:4781   */\n    tag_56:\n        /* \"#utility.yul\":4741:4748   */\n      0x00\n        /* \"#utility.yul\":4770:4775   */\n      dup2\n        /* \"#utility.yul\":4759:4775   */\n      swap1\n      pop\n        /* \"#utility.yul\":4704:4781   */\n      swap2\n      swap1\n      pop\n      jump\t// out\n        /* \"#utility.yul\":4787:4909   */\n    tag_57:\n        /* \"#utility.yul\":4860:4884   */\n      tag_134\n        /* \"#utility.yul\":4878:4883   */\n      dup2\n        /* \"#utility.yul\":4860:4884   */\n      tag_56\n      jump\t// in\n    tag_134:\n        /* \"#utility.yul\":4853:4858   */\n      dup2\n        /* \"#utility.yul\":4850:4885   */\n      eq\n        /* \"#utility.yul\":4840:4903   */\n      tag_135\n      jumpi\n        /* \"#utility.yul\":4899:4900   */\n      0x00\n        /* \"#utility.yul\":4896:4897   */\n      0x00\n        /* \"#utility.yul\":4889:4901   */\n      revert\n        /* \"#utility.yul\":4840:4903   */\n    tag_135:\n        /* \"#utility.yul\":4787:4909   */\n      pop\n      jump\t// out\n        /* \"#utility.yul\":4915:5054   */\n    tag_58:\n        /* \"#utility.yul\":4961:4966   */\n      0x00\n        /* \"#utility.yul\":4999:5005   */\n      dup2\n        /* \"#utility.yul\":4986:5006   */\n      calldataload\n        /* \"#utility.yul\":4977:5006   */\n      swap1\n      pop\n        /* \"#utility.yul\":5015:5048   */\n      tag_137\n        /* \"#utility.yul\":5042:5047   */\n      dup2\n        /* \"#utility.yul\":5015:5048   */\n      tag_57\n      jump\t// in\n    tag_137:\n        /* \"#utility.yul\":4915:5054   */\n      swap3\n      swap2\n      pop\n      pop\n      jump\t// out\n        /* \"#utility.yul\":5060:5534   */\n    tag_17:\n        /* \"#utility.yul\":5128:5134   */\n      0x00\n        /* \"#utility.yul\":5136:5142   */\n      0x00\n        /* \"#utility.yul\":5185:5187   */\n      0x40\n        /* \"#utility.yul\":5173:5182   */\n      dup4\n        /* \"#utility.yul\":5164:5171   */\n      dup6\n        /* \"#utility.yul\":5160:5183   */\n      sub\n        /* \"#utility.yul\":5156:5188   */\n      slt\n        /* \"#utility.yul\":5153:5272   */\n      iszero\n      tag_139\n      jumpi\n        /* \"#utility.yul\":5191:5270   */\n      tag_140\n      tag_36\n      jump\t// in\n    tag_140:\n        /* \"#utility.yul\":5153:5272   */\n    tag_139:\n        /* \"#utility.yul\":5311:5312   */\n      0x00\n        /* \"#utility.yul\":5336:5389   */\n      tag_141\n        /* \"#utility.yul\":5381:5388   */\n      dup6\n        /* \"#utility.yul\":5372:5378   */\n      dup3\n        /* \"#utility.yul\":5361:5370   */\n      dup7\n        /* \"#utility.yul\":5357:5379   */\n      add\n        /* \"#utility.yul\":5336:5389   */\n      tag_55\n      jump\t// in\n    tag_141:\n        /* \"#utility.yul\":5326:5389   */\n      swap3\n      pop\n        /* \"#utility.yul\":5282:5399   */\n      pop\n        /* \"#utility.yul\":5438:5440   */\n      0x20\n        /* \"#utility.yul\":5464:5517   */\n      tag_142\n        /* \"#utility.yul\":5509:5516   */\n      dup6\n        /* \"#utility.yul\":5500:5506   */\n      dup3\n        /* \"#utility.yul\":5489:5498   */\n      dup7\n        /* \"#utility.yul\":5485:5507   */\n      add\n        /* \"#utility.yul\":5464:5517   */\n      tag_58\n      jump\t// in\n    tag_142:\n        /* \"#utility.yul\":5454:5517   */\n      swap2\n      pop\n        /* \"#utility.yul\":5409:5527   */\n      pop\n        /* \"#utility.yul\":5060:5534   */\n      swap3\n      pop\n      swap3\n      swap1\n      pop\n      jump\t// out\n        /* \"#utility.yul\":5540:5724   */\n    tag_59:\n        /* \"#utility.yul\":5708:5717   */\n      0x44726166743a2000000000000000000000000000000000000000000000000000\n        /* \"#utility.yul\":5703:5706   */\n      dup2\n        /* \"#utility.yul\":5696:5718   */\n      mstore\n        /* \"#utility.yul\":5540:5724   */\n      pop\n      jump\t// out\n        /* \"#utility.yul\":5730:5878   */\n    tag_60:\n        /* \"#utility.yul\":5832:5843   */\n      0x00\n        /* \"#utility.yul\":5869:5872   */\n      dup2\n        /* \"#utility.yul\":5854:5872   */\n      swap1\n      pop\n        /* \"#utility.yul\":5730:5878   */\n      swap3\n      swap2\n      pop\n      pop\n      jump\t// out\n        /* \"#utility.yul\":5884:6274   */\n    tag_61:\n        /* \"#utility.yul\":5990:5993   */\n      0x00\n        /* \"#utility.yul\":6018:6057   */\n      tag_146\n        /* \"#utility.yul\":6051:6056   */\n      dup3\n        /* \"#utility.yul\":6018:6057   */\n      tag_48\n      jump\t// in\n    tag_146:\n        /* \"#utility.yul\":6073:6162   */\n      tag_147\n        /* \"#utility.yul\":6155:6161   */\n      dup2\n        /* \"#utility.yul\":6150:6153   */\n      dup6\n        /* \"#utility.yul\":6073:6162   */\n      tag_60\n      jump\t// in\n    tag_147:\n        /* \"#utility.yul\":6066:6162   */\n      swap4\n      pop\n        /* \"#utility.yul\":6171:6236   */\n      tag_148\n        /* \"#utility.yul\":6229:6235   */\n      dup2\n        /* \"#utility.yul\":6224:6227   */\n      dup6\n        /* \"#utility.yul\":6217:6221   */\n      0x20\n        /* \"#utility.yul\":6210:6215   */\n      dup7\n        /* \"#utility.yul\":6206:6222   */\n      add\n        /* \"#utility.yul\":6171:6236   */\n      tag_50\n      jump\t// in\n    tag_148:\n        /* \"#utility.yul\":6261:6267   */\n      dup1\n        /* \"#utility.yul\":6256:6259   */\n      dup5\n        /* \"#utility.yul\":6252:6268   */\n      add\n        /* \"#utility.yul\":6245:6268   */\n      swap2\n      pop\n        /* \"#utility.yul\":5994:6274   */\n      pop\n        /* \"#utility.yul\":5884:6274   */\n      swap3\n      swap2\n      pop\n      pop\n      jump\t// out\n        /* \"#utility.yul\":6280:6819   */\n    tag_22:\n        /* \"#utility.yul\":6502:6505   */\n      0x00\n        /* \"#utility.yul\":6517:6654   */\n      tag_150\n        /* \"#utility.yul\":6650:6653   */\n      dup3\n        /* \"#utility.yul\":6517:6654   */\n      tag_59\n      jump\t// in\n    tag_150:\n        /* \"#utility.yul\":6679:6680   */\n      0x07\n        /* \"#utility.yul\":6674:6677   */\n      dup3\n        /* \"#utility.yul\":6670:6681   */\n      add\n        /* \"#utility.yul\":6663:6681   */\n      swap2\n      pop\n        /* \"#utility.yul\":6698:6793   */\n      tag_151\n        /* \"#utility.yul\":6789:6792   */\n      dup3\n        /* \"#utility.yul\":6780:6786   */\n      dup5\n        /* \"#utility.yul\":6698:6793   */\n      tag_61\n      jump\t// in\n    tag_151:\n        /* \"#utility.yul\":6691:6793   */\n      swap2\n      pop\n        /* \"#utility.yul\":6810:6813   */\n      dup2\n        /* \"#utility.yul\":6803:6813   */\n      swap1\n      pop\n        /* \"#utility.yul\":6280:6819   */\n      swap3\n      swap2\n      pop\n      pop\n      jump\t// out\n        /* \"#utility.yul\":6825:7005   */\n    tag_62:\n        /* \"#utility.yul\":6873:6950   */\n      0x4e487b7100000000000000000000000000000000000000000000000000000000\n        /* \"#utility.yul\":6870:6871   */\n      0x00\n        /* \"#utility.yul\":6863:6951   */\n      mstore\n        /* \"#utility.yul\":6970:6974   */\n      0x22\n        /* \"#utility.yul\":6967:6968   */\n      0x04\n        /* \"#utility.yul\":6960:6975   */\n      mstore\n        /* \"#utility.yul\":6994:6998   */\n      0x24\n        /* \"#utility.yul\":6991:6992   */\n      0x00\n        /* \"#utility.yul\":6984:6999   */\n      revert\n        /* \"#utility.yul\":7011:7331   */\n    tag_30:\n        /* \"#utility.yul\":7055:7061   */\n      0x00\n        /* \"#utility.yul\":7092:7093   */\n      0x02\n        /* \"#utility.yul\":7086:7090   */\n      dup3\n        /* \"#utility.yul\":7082:7094   */\n      div\n        /* \"#utility.yul\":7072:7094   */\n      swap1\n      pop\n        /* \"#utility.yul\":7139:7140   */\n      0x01\n        /* \"#utility.yul\":7133:7137   */\n      dup3\n        /* \"#utility.yul\":7129:7141   */\n      and\n        /* \"#utility.yul\":7160:7178   */\n      dup1\n        /* \"#utility.yul\":7150:7231   */\n      tag_154\n      jumpi\n        /* \"#utility.yul\":7216:7220   */\n      0x7f\n        /* \"#utility.yul\":7208:7214   */\n      dup3\n        /* \"#utility.yul\":7204:7221   */\n      and\n        /* \"#utility.yul\":7194:7221   */\n      swap2\n      pop\n        /* \"#utility.yul\":7150:7231   */\n    tag_154:\n        /* \"#utility.yul\":7278:7280   */\n      0x20\n        /* \"#utility.yul\":7270:7276   */\n      dup3\n        /* \"#utility.yul\":7267:7281   */\n      lt\n        /* \"#utility.yul\":7247:7265   */\n      dup2\n        /* \"#utility.yul\":7244:7282   */\n      sub\n        /* \"#utility.yul\":7241:7325   */\n      tag_155\n      jumpi\n        /* \"#utility.yul\":7297:7315   */\n      tag_156\n      tag_62\n      jump\t// in\n    tag_156:\n        /* \"#utility.yul\":7241:7325   */\n    tag_155:\n        /* \"#utility.yul\":7062:7331   */\n      pop\n        /* \"#utility.yul\":7011:7331   */\n      swap2\n      swap1\n      pop\n      jump\t// out\n        /* \"#utility.yul\":7337:7478   */\n    tag_63:\n        /* \"#utility.yul\":7386:7390   */\n      0x00\n        /* \"#utility.yul\":7409:7412   */\n      dup2\n        /* \"#utility.yul\":7401:7412   */\n      swap1\n      pop\n        /* \"#utility.yul\":7432:7435   */\n      dup2\n        /* \"#utility.yul\":7429:7430   */\n      0x00\n        /* \"#utility.yul\":7422:7436   */\n      mstore\n        /* \"#utility.yul\":7466:7470   */\n      0x20\n        /* \"#utility.yul\":7463:7464   */\n      0x00\n        /* \"#utility.yul\":7453:7471   */\n      keccak256\n        /* \"#utility.yul\":7445:7471   */\n      swap1\n      pop\n        /* \"#utility.yul\":7337:7478   */\n      swap2\n      swap1\n      pop\n      jump\t// out\n        /* \"#utility.yul\":7484:7577   */\n    tag_64:\n        /* \"#utility.yul\":7521:7527   */\n      0x00\n        /* \"#utility.yul\":7568:7570   */\n      0x20\n        /* \"#utility.yul\":7563:7565   */\n      0x1f\n        /* \"#utility.yul\":7556:7561   */\n      dup4\n        /* \"#utility.yul\":7552:7566   */\n      add\n        /* \"#utility.yul\":7548:7571   */\n      div\n        /* \"#utility.yul\":7538:7571   */\n      swap1\n      pop\n        /* \"#utility.yul\":7484:7577   */\n      swap2\n      swap1\n      pop\n      jump\t// out\n        /* \"#utility.yul\":7583:7690   */\n    tag_65:\n        /* \"#utility.yul\":7627:7635   */\n      0x00\n        /* \"#utility.yul\":7677:7682   */\n      dup3\n        /* \"#utility.yul\":7671:7675   */\n      dup3\n        /* \"#utility.yul\":7667:7683   */\n      shl\n        /* \"#utility.yul\":7646:7683   */\n      swap1\n      pop\n        /* \"#utility.yul\":7583:7690   */\n      swap3\n      swap2\n      pop\n      pop\n      jump\t// out\n        /* \"#utility.yul\":7696:8089   */\n    tag_66:\n        /* \"#utility.yul\":7765:7771   */\n      0x00\n        /* \"#utility.yul\":7815:7816   */\n      0x08\n        /* \"#utility.yul\":7803:7813   */\n      dup4\n        /* \"#utility.yul\":7799:7817   */\n      mul\n        /* \"#utility.yul\":7838:7935   */\n      tag_161\n        /* \"#utility.yul\":7868:7934   */\n      0xffffffffffffffffffffffffffffffffffffffffffffffffffffffffffffffff\n        /* \"#utility.yul\":7857:7866   */\n      dup3\n        /* \"#utility.yul\":7838:7935   */\n      tag_65\n      jump\t// in\n    tag_161:\n        /* \"#utility.yul\":7956:7995   */\n      tag_162\n        /* \"#utility.yul\":7986:7994   */\n      dup7\n        /* \"#utility.yul\":7975:7984   */\n      dup4\n        /* \"#utility.yul\":7956:7995   */\n      tag_65\n      jump\t// in\n    tag_162:\n        /* \"#utility.yul\":7944:7995   */\n      swap6\n      pop\n        /* \"#utility.yul\":8028:8032   */\n      dup1\n        /* \"#utility.yul\":8024:8033   */\n      not\n        /* \"#utility.yul\":8017:8022   */\n      dup5\n        /* \"#utility.yul\":8013:8034   */\n      and\n        /* \"#utility.yul\":8004:8034   */\n      swap4\n      pop\n        /* \"#utility.yul\":8077:8081   */\n      dup1\n        /* \"#utility.yul\":8067:8075   */\n      dup7\n        /* \"#utility.yul\":8063:8082   */\n      and\n        /* \"#utility.yul\":8056:8061   */\n      dup5\n        /* \"#utility.yul\":8053:8083   */\n      or\n        /* \"#utility.yul\":8043:8083   */\n      swap3\n      pop\n        /* \"#utility.yul\":7772:8089   */\n      pop\n      pop\n        /* \"#utility.yul\":7696:8089   */\n      swap4\n      swap3\n      pop\n      pop\n      pop\n      jump\t// out\n        /* \"#utility.yul\":8095:8155   */\n    tag_67:\n        /* \"#utility.yul\":8123:8126   */\n      0x00\n        /* \"#utility.yul\":8144:8149   */\n      dup2\n        /* \"#utility.yul\":8137:8149   */\n      swap1\n      pop\n        /* \"#utility.yul\":8095:8155   */\n      swap2\n      swap1\n      pop\n      jump\t// out\n        /* \"#utility.yul\":8161:8303   */\n    tag_68:\n        /* \"#utility.yul\":8211:8220   */\n      0x00\n        /* \"#utility.yul\":8244:8297   */\n      tag_165\n        /* \"#utility.yul\":8262:8296   */\n      tag_166\n        /* \"#utility.yul\":8271:8295   */\n      tag_167\n        /* \"#utility.yul\":8289:8294   */\n      dup5\n        /* \"#utility.yul\":8271:8295   */\n      tag_56\n      jump\t// in\n    tag_167:\n        /* \"#utility.yul\":8262:8296   */\n      tag_67\n      jump\t// in\n    tag_166:\n        /* \"#utility.yul\":8244:8297   */\n      tag_56\n      jump\t// in\n    tag_165:\n        /* \"#utility.yul\":8231:8297   */\n      swap1\n      pop\n        /* \"#utility.yul\":8161:8303   */\n      swap2\n      swap1\n      pop\n      jump\t// out\n        /* \"#utility.yul\":8309:8384   */\n    tag_69:\n        /* \"#utility.yul\":8352:8355   */\n      0x00\n        /* \"#utility.yul\":8373:8378   */\n      dup2\n        /* \"#utility.yul\":8366:8378   */\n      swap1\n      pop\n        /* \"#utility.yul\":8309:8384   */\n      swap2\n      swap1\n      pop\n      jump\t// out\n        /* \"#utility.yul\":8390:8659   */\n    tag_70:\n        /* \"#utility.yul\":8500:8539   */\n      tag_170\n        /* \"#utility.yul\":8531:8538   */\n      dup4\n        /* \"#utility.yul\":8500:8539   */\n      tag_68\n      jump\t// in\n    tag_170:\n        /* \"#utility.yul\":8561:8652   */\n      tag_171\n        /* \"#utility.yul\":8610:8651   */\n      tag_172\n        /* \"#utility.yul\":8634:8650   */\n      dup3\n        /* \"#utility.yul\":8610:8651   */\n      tag_69\n      jump\t// in\n    tag_172:\n        /* \"#utility.yul\":8602:8608   */\n      dup5\n        /* \"#utility.yul\":8595:8599   */\n      dup5\n        /* \"#utility.yul\":8589:8600   */\n      sload\n        /* \"#utility.yul\":8561:8652   */\n      tag_66\n      jump\t// in\n    tag_171:\n        /* \"#utility.yul\":8555:8559   */\n      dup3\n        /* \"#utility.yul\":8548:8653   */\n      sstore\n        /* \"#utility.yul\":8466:8659   */\n      pop\n        /* \"#utility.yul\":8390:8659   */\n      pop\n      pop\n      pop\n      jump\t// out\n        /* \"#utility.yul\":8665:8738   */\n    tag_71:\n        /* \"#utility.yul\":8710:8713   */\n      0x00\n        /* \"#utility.yul\":8731:8732   */\n      0x00\n        /* \"#utility.yul\":8724:8732   */\n      swap1\n      pop\n        /* \"#utility.yul\":8665:8738   */\n      swap1\n      jump\t// out\n        /* \"#utility.yul\":8744:8933   */\n    tag_72:\n        /* \"#utility.yul\":8821:8853   */\n      tag_175\n      tag_71\n      jump\t// in\n    tag_175:\n        /* \"#utility.yul\":8862:8927   */\n      tag_176\n        /* \"#utility.yul\":8920:8926   */\n      dup2\n        /* \"#utility.yul\":8912:8918   */\n      dup5\n        /* \"#utility.yul\":8906:8910   */\n      dup5\n        /* \"#utility.yul\":8862:8927   */\n      tag_70\n      jump\t// in\n    tag_176:\n        /* \"#utility.yul\":8797:8933   */\n      pop\n        /* \"#utility.yul\":8744:8933   */\n      pop\n      pop\n      jump\t// out\n        /* \"#utility.yul\":8939:9125   */\n    tag_73:\n        /* \"#utility.yul\":8999:9119   */\n    tag_178:\n        /* \"#utility.yul\":9016:9019   */\n      dup2\n        /* \"#utility.yul\":9009:9014   */\n      dup2\n        /* \"#utility.yul\":9006:9020   */\n      lt\n        /* \"#utility.yul\":8999:9119   */\n      iszero\n      tag_180\n      jumpi\n        /* \"#utility.yul\":9070:9109   */\n      tag_181\n        /* \"#utility.yul\":9107:9108   */\n      0x00\n        /* \"#utility.yul\":9100:9105   */\n      dup3\n        /* \"#utility.yul\":9070:9109   */\n      tag_72\n      jump\t// in\n    tag_181:\n        /* \"#utility.yul\":9043:9044   */\n      0x01\n        /* \"#utility.yul\":9036:9041   */\n      dup2\n        /* \"#utility.yul\":9032:9045   */\n      add\n        /* \"#utility.yul\":9023:9045   */\n      swap1\n      pop\n        /* \"#utility.yul\":8999:9119   */\n      jump(tag_178)\n    tag_180:\n        /* \"#utility.yul\":8939:9125   */\n      pop\n      pop\n      jump\t// out\n        /* \"#utility.yul\":9131:9674   */\n    tag_74:\n        /* \"#utility.yul\":9232:9234   */\n      0x1f\n        /* \"#utility.yul\":9227:9230   */\n      dup3\n        /* \"#utility.yul\":9224:9235   */\n      gt\n        /* \"#utility.yul\":9221:9667   */\n      iszero\n      tag_183\n      jumpi\n        /* \"#utility.yul\":9266:9304   */\n      tag_184\n        /* \"#utility.yul\":9298:9303   */\n      dup2\n        /* \"#utility.yul\":9266:9304   */\n      tag_63\n      jump\t// in\n    tag_184:\n        /* \"#utility.yul\":9350:9379   */\n      tag_185\n        /* \"#utility.yul\":9368:9378   */\n      dup5\n        /* \"#utility.yul\":9350:9379   */\n      tag_64\n      jump\t// in\n    tag_185:\n        /* \"#utility.yul\":9340:9348   */\n      dup2\n        /* \"#utility.yul\":9336:9380   */\n      add\n        /* \"#utility.yul\":9533:9535   */\n      0x20\n        /* \"#utility.yul\":9521:9531   */\n      dup6\n        /* \"#utility.yul\":9518:9536   */\n      lt\n        /* \"#utility.yul\":9515:9564   */\n      iszero\n      tag_186\n      jumpi\n        /* \"#utility.yul\":9554:9562   */\n      dup2\n        /* \"#utility.yul\":9539:9562   */\n      swap1\n      pop\n        /* \"#utility.yul\":9515:9564   */\n    tag_186:\n        /* \"#utility.yul\":9577:9657   */\n      tag_187\n        /* \"#utility.yul\":9633:9655   */\n      tag_188\n        /* \"#utility.yul\":9651:9654   */\n      dup6\n        /* \"#utility.yul\":9633:9655   */\n      tag_64\n      jump\t// in\n    tag_188:\n        /* \"#utility.yul\":9623:9631   */\n      dup4\n        /* \"#utility.yul\":9619:9656   */\n      add\n        /* \"#utility.yul\":9606:9617   */\n      dup3\n        /* \"#utility.yul\":9577:9657   */\n      tag_73\n      jump\t// in\n    tag_187:\n        /* \"#utility.yul\":9236:9667   */\n      pop\n      pop\n        /* \"#utility.yul\":9221:9667   */\n    tag_183:\n        /* \"#utility.yul\":9131:9674   */\n      pop\n      pop\n      pop\n      jump\t// out\n        /* \"#utility.yul\":9680:9797   */\n    tag_75:\n        /* \"#utility.yul\":9734:9742   */\n      0x00\n        /* \"#utility.yul\":9784:9789   */\n      dup3\n        /* \"#utility.yul\":9778:9782   */\n      dup3\n        /* \"#utility.yul\":9774:9790   */\n      shr\n        /* \"#utility.yul\":9753:9790   */\n      swap1\n      pop\n        /* \"#utility.yul\":9680:9797   */\n      swap3\n      swap2\n      pop\n      pop\n      jump\t// out\n        /* \"#utility.yul\":9803:9972   */\n    tag_76:\n        /* \"#utility.yul\":9847:9853   */\n      0x00\n        /* \"#utility.yul\":9880:9931   */\n      tag_191\n        /* \"#utility.yul\":9928:9929   */\n      0x00\n        /* \"#utility.yul\":9924:9930   */\n      not\n        /* \"#utility.yul\":9916:9921   */\n      dup5\n        /* \"#utility.yul\":9913:9914   */\n      0x08\n        /* \"#utility.yul\":9909:9922   */\n      mul\n        /* \"#utility.yul\":9880:9931   */\n      tag_75\n      jump\t// in\n    tag_191:\n        /* \"#utility.yul\":9876:9932   */\n      not\n        /* \"#utility.yul\":9961:9965   */\n      dup1\n        /* \"#utility.yul\":9955:9959   */\n      dup4\n        /* \"#utility.yul\":9951:9966   */\n      and\n        /* \"#utility.yul\":9941:9966   */\n      swap2\n      pop\n        /* \"#utility.yul\":9854:9972   */\n      pop\n        /* \"#utility.yul\":9803:9972   */\n      swap3\n      swap2\n      pop\n      pop\n      jump\t// out\n        /* \"#utility.yul\":9977:10272   */\n    tag_77:\n        /* \"#utility.yul\":10053:10057   */\n      0x00\n        /* \"#utility.yul\":10199:10228   */\n      tag_193\n        /* \"#utility.yul\":10224:10227   */\n      dup4\n        /* \"#utility.yul\":10218:10222   */\n      dup4\n        /* \"#utility.yul\":10199:10228   */\n      tag_76\n      jump\t// in\n    tag_193:\n        /* \"#utility.yul\":10191:10228   */\n      swap2\n      pop\n        /* \"#utility.yul\":10261:10264   */\n      dup3\n        /* \"#utility.yul\":10258:10259   */\n      0x02\n        /* \"#utility.yul\":10254:10265   */\n      mul\n        /* \"#utility.yul\":10248:10252   */\n      dup3\n        /* \"#utility.yul\":10245:10266   */\n      or\n        /* \"#utility.yul\":10237:10266   */\n      swap1\n      pop\n        /* \"#utility.yul\":9977:10272   */\n      swap3\n      swap2\n      pop\n      pop\n      jump\t// out\n        /* \"#utility.yul\":10277:11672   */\n    tag_26:\n        /* \"#utility.yul\":10394:10431   */\n      tag_195\n        /* \"#utility.yul\":10427:10430   */\n      dup3\n        /* \"#utility.yul\":10394:10431   */\n      tag_48\n      jump\t// in\n    tag_195:\n        /* \"#utility.yul\":10496:10514   */\n      0xffffffffffffffff\n        /* \"#utility.yul\":10488:10494   */\n      dup2\n        /* \"#utility.yul\":10485:10515   */\n      gt\n        /* \"#utility.yul\":10482:10538   */\n      iszero\n      tag_196\n      jumpi\n        /* \"#utility.yul\":10518:10536   */\n      tag_197\n      tag_41\n      jump\t// in\n    tag_197:\n        /* \"#utility.yul\":10482:10538   */\n    tag_196:\n        /* \"#utility.yul\":10562:10600   */\n      tag_198\n        /* \"#utility.yul\":10594:10598   */\n      dup3\n        /* \"#utility.yul\":10588:10599   */\n      sload\n        /* \"#utility.yul\":10562:10600   */\n      tag_30\n      jump\t// in\n    tag_198:\n        /* \"#utility.yul\":10647:10714   */\n      tag_199\n        /* \"#utility.yul\":10707:10713   */\n      dup3\n        /* \"#utility.yul\":10699:10705   */\n      dup3\n        /* \"#utility.yul\":10693:10697   */\n      dup6\n        /* \"#utility.yul\":10647:10714   */\n      tag_74\n      jump\t// in\n    tag_199:\n        /* \"#utility.yul\":10741:10742   */\n      0x00\n        /* \"#utility.yul\":10765:10769   */\n      0x20\n        /* \"#utility.yul\":10752:10769   */\n      swap1\n      pop\n        /* \"#utility.yul\":10797:10799   */\n      0x1f\n        /* \"#utility.yul\":10789:10795   */\n      dup4\n        /* \"#utility.yul\":10786:10800   */\n      gt\n        /* \"#utility.yul\":10814:10815   */\n      0x01\n        /* \"#utility.yul\":10809:11427   */\n      dup2\n      eq\n      tag_201\n      jumpi\n        /* \"#utility.yul\":11471:11472   */\n      0x00\n        /* \"#utility.yul\":11488:11494   */\n      dup5\n        /* \"#utility.yul\":11485:11562   */\n      iszero\n      tag_202\n      jumpi\n        /* \"#utility.yul\":11537:11546   */\n      dup3\n        /* \"#utility.yul\":11532:11535   */\n      dup8\n        /* \"#utility.yul\":11528:11547   */\n      add\n        /* \"#utility.yul\":11522:11548   */\n      mload\n        /* \"#utility.yul\":11513:11548   */\n      swap1\n      pop\n        /* \"#utility.yul\":11485:11562   */\n    tag_202:\n        /* \"#utility.yul\":11588:11655   */\n      tag_203\n        /* \"#utility.yul\":11648:11654   */\n      dup6\n        /* \"#utility.yul\":11641:11646   */\n      dup3\n        /* \"#utility.yul\":11588:11655   */\n      tag_77\n      jump\t// in\n    tag_203:\n        /* \"#utility.yul\":11582:11586   */\n      dup7\n        /* \"#utility.yul\":11575:11656   */\n      sstore\n        /* \"#utility.yul\":11444:11666   */\n      pop\n        /* \"#utility.yul\":10779:11666   */\n      jump(tag_200)\n        /* \"#utility.yul\":10809:11427   */\n    tag_201:\n        /* \"#utility.yul\":10861:10865   */\n      0x1f\n        /* \"#utility.yul\":10857:10866   */\n      not\n        /* \"#utility.yul\":10849:10855   */\n      dup5\n        /* \"#utility.yul\":10845:10867   */\n      and\n        /* \"#utility.yul\":10895:10932   */\n      tag_204\n        /* \"#utility.yul\":10927:10931   */\n      dup7\n        /* \"#utility.yul\":10895:10932   */\n      tag_63\n      jump\t// in\n    tag_204:\n        /* \"#utility.yul\":10954:10955   */\n      0x00\n        /* \"#utility.yul\":10968:11176   */\n    tag_205:\n        /* \"#utility.yul\":10982:10989   */\n      dup3\n        /* \"#utility.yul\":10979:10980   */\n      dup2\n        /* \"#utility.yul\":10976:10990   */\n      lt\n        /* \"#utility.yul\":10968:11176   */\n      iszero\n      tag_207\n      jumpi\n        /* \"#utility.yul\":11061:11070   */\n      dup5\n        /* \"#utility.yul\":11056:11059   */\n      dup10\n        /* \"#utility.yul\":11052:11071   */\n      add\n        /* \"#utility.yul\":11046:11072   */\n      mload\n        /* \"#utility.yul\":11038:11044   */\n      dup3\n        /* \"#utility.yul\":11031:11073   */\n      sstore\n        /* \"#utility.yul\":11112:11113   */\n      0x01\n        /* \"#utility.yul\":11104:11110   */\n      dup3\n        /* \"#utility.yul\":11100:11114   */\n      add\n        /* \"#utility.yul\":11090:11114   */\n      swap2\n      pop\n        /* \"#utility.yul\":11159:11161   */\n      0x20\n        /* \"#utility.yul\":11148:11157   */\n      dup6\n        /* \"#utility.yul\":11144:11162   */\n      add\n        /* \"#utility.yul\":11131:11162   */\n      swap5\n      pop\n        /* \"#utility.yul\":11005:11009   */\n      0x20\n        /* \"#utility.yul\":11002:11003   */\n      dup2\n        /* \"#utility.yul\":10998:11010   */\n      add\n        /* \"#utility.yul\":10993:11010   */\n      swap1\n      pop\n        /* \"#utility.yul\":10968:11176   */\n      jump(tag_205)\n    tag_207:\n        /* \"#utility.yul\":11204:11210   */\n      dup7\n        /* \"#utility.yul\":11195:11202   */\n      dup4\n        /* \"#utility.yul\":11192:11211   */\n      lt\n        /* \"#utility.yul\":11189:11368   */\n      iszero\n      tag_208\n      jumpi\n        /* \"#utility.yul\":11262:11271   */\n      dup5\n        /* \"#utility.yul\":11257:11260   */\n      dup10\n        /* \"#utility.yul\":11253:11272   */\n      add\n        /* \"#utility.yul\":11247:11273   */\n      mload\n        /* \"#utility.yul\":11305:11353   */\n      tag_209\n        /* \"#utility.yul\":11347:11351   */\n      0x1f\n        /* \"#utility.yul\":11339:11345   */\n      dup10\n        /* \"#utility.yul\":11335:11352   */\n      and\n        /* \"#utility.yul\":11324:11333   */\n      dup3\n        /* \"#utility.yul\":11305:11353   */\n      tag_76\n      jump\t// in\n    tag_209:\n        /* \"#utility.yul\":11297:11303   */\n      dup4\n        /* \"#utility.yul\":11290:11354   */\n      sstore\n        /* \"#utility.yul\":11212:11368   */\n      pop\n        /* \"#utility.yul\":11189:11368   */\n    tag_208:\n        /* \"#utility.yul\":11414:11415   */\n      0x01\n        /* \"#utility.yul\":11410:11411   */\n      0x02\n        /* \"#utility.yul\":11402:11408   */\n      dup9\n        /* \"#utility.yul\":11398:11412   */\n      mul\n        /* \"#utility.yul\":11394:11416   */\n      add\n        /* \"#utility.yul\":11388:11392   */\n      dup9\n        /* \"#utility.yul\":11381:11417   */\n      sstore\n        /* \"#utility.yul\":10816:11427   */\n      pop\n      pop\n      pop\n        /* \"#utility.yul\":10779:11666   */\n    tag_200:\n      pop\n        /* \"#utility.yul\":10369:11672   */\n      pop\n      pop\n      pop\n        /* \"#utility.yul\":10277:11672   */\n      pop\n      pop\n      jump\t// out\n\n    auxdata: 0xa2646970667358221220006ac3fe9ec4f6046c3e0ceabb45c2fbf53f90a9afb4b1e48fa42b1231db2f0c64736f6c634300081c0033\n}\n",
				"bytecode": {
					"linkReferences": {},
					"object": "6080604052348015600e575f5ffd5b5061086d8061001c5f395ff3fe608060405234801561000f575f5ffd5b506004361061003f575f3560e01c806364682bf0146100435780636a226a4914610073578063c45d9bea1461008f575b5f5ffd5b61005d60048036038101906100589190610354565b6100bf565b60405161006a91906103fb565b60405180910390f35b61008d60048036038101906100889190610354565b6100e8565b005b6100a960048036038101906100a491906104a8565b610157565b6040516100b691906103fb565b60405180910390f35b6060816040516020016100d29190610546565b6040516020818303038152906040529050919050565b5f5f3373ffffffffffffffffffffffffffffffffffffffff1673ffffffffffffffffffffffffffffffffffffffff1681526020019081526020015f2081908060018154018082558091505060019003905f5260205f20015f9091909190915090816101539190610768565b5050565b5f602052815f5260405f20818154811061016f575f80fd5b905f5260205f20015f9150915050805461018890610598565b80601f01602080910402602001604051908101604052809291908181526020018280546101b490610598565b80156101ff5780601f106101d6576101008083540402835291602001916101ff565b820191905f5260205f20905b8154815290600101906020018083116101e257829003601f168201915b505050505081565b5f604051905090565b5f5ffd5b5f5ffd5b5f5ffd5b5f5ffd5b5f601f19601f8301169050919050565b7f4e487b71000000000000000000000000000000000000000000000000000000005f52604160045260245ffd5b61026682610220565b810181811067ffffffffffffffff8211171561028557610284610230565b5b80604052505050565b5f610297610207565b90506102a3828261025d565b919050565b5f67ffffffffffffffff8211156102c2576102c1610230565b5b6102cb82610220565b9050602081019050919050565b828183375f83830152505050565b5f6102f86102f3846102a8565b61028e565b9050828152602081018484840111156103145761031361021c565b5b61031f8482856102d8565b509392505050565b5f82601f83011261033b5761033a610218565b5b813561034b8482602086016102e6565b91505092915050565b5f6020828403121561036957610368610210565b5b5f82013567ffffffffffffffff81111561038657610385610214565b5b61039284828501610327565b91505092915050565b5f81519050919050565b5f82825260208201905092915050565b8281835e5f83830152505050565b5f6103cd8261039b565b6103d781856103a5565b93506103e78185602086016103b5565b6103f081610220565b840191505092915050565b5f6020820190508181035f83015261041381846103c3565b905092915050565b5f73ffffffffffffffffffffffffffffffffffffffff82169050919050565b5f6104448261041b565b9050919050565b6104548161043a565b811461045e575f5ffd5b50565b5f8135905061046f8161044b565b92915050565b5f819050919050565b61048781610475565b8114610491575f5ffd5b50565b5f813590506104a28161047e565b92915050565b5f5f604083850312156104be576104bd610210565b5b5f6104cb85828601610461565b92505060206104dc85828601610494565b9150509250929050565b7f44726166743a2000000000000000000000000000000000000000000000000000815250565b5f81905092915050565b5f6105208261039b565b61052a818561050c565b935061053a8185602086016103b5565b80840191505092915050565b5f610550826104e6565b6007820191506105608284610516565b915081905092915050565b7f4e487b71000000000000000000000000000000000000000000000000000000005f52602260045260245ffd5b5f60028204905060018216806105af57607f821691505b6020821081036105c2576105c161056b565b5b50919050565b5f819050815f5260205f209050919050565b5f6020601f8301049050919050565b5f82821b905092915050565b5f600883026106247fffffffffffffffffffffffffffffffffffffffffffffffffffffffffffffffff826105e9565b61062e86836105e9565b95508019841693508086168417925050509392505050565b5f819050919050565b5f61066961066461065f84610475565b610646565b610475565b9050919050565b5f819050919050565b6106828361064f565b61069661068e82610670565b8484546105f5565b825550505050565b5f5f905090565b6106ad61069e565b6106b8818484610679565b505050565b5b818110156106db576106d05f826106a5565b6001810190506106be565b5050565b601f821115610720576106f1816105c8565b6106fa846105da565b81016020851015610709578190505b61071d610715856105da565b8301826106bd565b50505b505050565b5f82821c905092915050565b5f6107405f1984600802610725565b1980831691505092915050565b5f6107588383610731565b9150826002028217905092915050565b6107718261039b565b67ffffffffffffffff81111561078a57610789610230565b5b6107948254610598565b61079f8282856106df565b5f60209050601f8311600181146107d0575f84156107be578287015190505b6107c8858261074d565b86555061082f565b601f1984166107de866105c8565b5f5b82811015610805578489015182556001820191506020850194506020810190506107e0565b86831015610822578489015161081e601f891682610731565b8355505b6001600288020188555050505b50505050505056fea2646970667358221220006ac3fe9ec4f6046c3e0ceabb45c2fbf53f90a9afb4b1e48fa42b1231db2f0c64736f6c634300081c0033",
					"opcodes": "PUSH1 0x80 PUSH1 0x40 MSTORE CALLVALUE DUP1 ISZERO PUSH1 0xE JUMPI PUSH0 PUSH0 REVERT JUMPDEST POP PUSH2 0x86D DUP1 PUSH2 0x1C PUSH0 CODECOPY PUSH0 RETURN INVALID PUSH1 0x80 PUSH1 0x40 MSTORE CALLVALUE DUP1 ISZERO PUSH2 0xF JUMPI PUSH0 PUSH0 REVERT JUMPDEST POP PUSH1 0x4 CALLDATASIZE LT PUSH2 0x3F JUMPI PUSH0 CALLDATALOAD PUSH1 0xE0 SHR DUP1 PUSH4 0x64682BF0 EQ PUSH2 0x43 JUMPI DUP1 PUSH4 0x6A226A49 EQ PUSH2 0x73 JUMPI DUP1 PUSH4 0xC45D9BEA EQ PUSH2 0x8F JUMPI JUMPDEST PUSH0 PUSH0 REVERT JUMPDEST PUSH2 0x5D PUSH1 0x4 DUP1 CALLDATASIZE SUB DUP2 ADD SWAP1 PUSH2 0x58 SWAP2 SWAP1 PUSH2 0x354 JUMP JUMPDEST PUSH2 0xBF JUMP JUMPDEST PUSH1 0x40 MLOAD PUSH2 0x6A SWAP2 SWAP1 PUSH2 0x3FB JUMP JUMPDEST PUSH1 0x40 MLOAD DUP1 SWAP2 SUB SWAP1 RETURN JUMPDEST PUSH2 0x8D PUSH1 0x4 DUP1 CALLDATASIZE SUB DUP2 ADD SWAP1 PUSH2 0x88 SWAP2 SWAP1 PUSH2 0x354 JUMP JUMPDEST PUSH2 0xE8 JUMP JUMPDEST STOP JUMPDEST PUSH2 0xA9 PUSH1 0x4 DUP1 CALLDATASIZE SUB DUP2 ADD SWAP1 PUSH2 0xA4 SWAP2 SWAP1 PUSH2 0x4A8 JUMP JUMPDEST PUSH2 0x157 JUMP JUMPDEST PUSH1 0x40 MLOAD PUSH2 0xB6 SWAP2 SWAP1 PUSH2 0x3FB JUMP JUMPDEST PUSH1 0x40 MLOAD DUP1 SWAP2 SUB SWAP1 RETURN JUMPDEST PUSH1 0x60 DUP2 PUSH1 0x40 MLOAD PUSH1 0x20 ADD PUSH2 0xD2 SWAP2 SWAP1 PUSH2 0x546 JUMP JUMPDEST PUSH1 0x40 MLOAD PUSH1 0x20 DUP2 DUP4 SUB SUB DUP2 MSTORE SWAP1 PUSH1 0x40 MSTORE SWAP1 POP SWAP2 SWAP1 POP JUMP JUMPDEST PUSH0 PUSH0 CALLER PUSH20 0xFFFFFFFFFFFFFFFFFFFFFFFFFFFFFFFFFFFFFFFF AND PUSH20 0xFFFFFFFFFFFFFFFFFFFFFFFFFFFFFFFFFFFFFFFF AND DUP2 MSTORE PUSH1 0x20 ADD SWAP1 DUP2 MSTORE PUSH1 0x20 ADD PUSH0 KECCAK256 DUP2 SWAP1 DUP1 PUSH1 0x1 DUP2 SLOAD ADD DUP1 DUP3 SSTORE DUP1 SWAP2 POP POP PUSH1 0x1 SWAP1 SUB SWAP1 PUSH0 MSTORE PUSH1 0x20 PUSH0 KECCAK256 ADD PUSH0 SWAP1 SWAP2 SWAP1 SWAP2 SWAP1 SWAP2 POP SWAP1 DUP2 PUSH2 0x153 SWAP2 SWAP1 PUSH2 0x768 JUMP JUMPDEST POP POP JUMP JUMPDEST PUSH0 PUSH1 0x20 MSTORE DUP2 PUSH0 MSTORE PUSH1 0x40 PUSH0 KECCAK256 DUP2 DUP2 SLOAD DUP2 LT PUSH2 0x16F JUMPI PUSH0 DUP1 REVERT JUMPDEST SWAP1 PUSH0 MSTORE PUSH1 0x20 PUSH0 KECCAK256 ADD PUSH0 SWAP2 POP SWAP2 POP POP DUP1 SLOAD PUSH2 0x188 SWAP1 PUSH2 0x598 JUMP JUMPDEST DUP1 PUSH1 0x1F ADD PUSH1 0x20 DUP1 SWAP2 DIV MUL PUSH1 0x20 ADD PUSH1 0x40 MLOAD SWAP1 DUP2 ADD PUSH1 0x40 MSTORE DUP1 SWAP3 SWAP2 SWAP1 DUP2 DUP2 MSTORE PUSH1 0x20 ADD DUP3 DUP1 SLOAD PUSH2 0x1B4 SWAP1 PUSH2 0x598 JUMP JUMPDEST DUP1 ISZERO PUSH2 0x1FF JUMPI DUP1 PUSH1 0x1F LT PUSH2 0x1D6 JUMPI PUSH2 0x100 DUP1 DUP4 SLOAD DIV MUL DUP4 MSTORE SWAP2 PUSH1 0x20 ADD SWAP2 PUSH2 0x1FF JUMP JUMPDEST DUP3 ADD SWAP2 SWAP1 PUSH0 MSTORE PUSH1 0x20 PUSH0 KECCAK256 SWAP1 JUMPDEST DUP2 SLOAD DUP2 MSTORE SWAP1 PUSH1 0x1 ADD SWAP1 PUSH1 0x20 ADD DUP1 DUP4 GT PUSH2 0x1E2 JUMPI DUP3 SWAP1 SUB PUSH1 0x1F AND DUP3 ADD SWAP2 JUMPDEST POP POP POP POP POP DUP2 JUMP JUMPDEST PUSH0 PUSH1 0x40 MLOAD SWAP1 POP SWAP1 JUMP JUMPDEST PUSH0 PUSH0 REVERT JUMPDEST PUSH0 PUSH0 REVERT JUMPDEST PUSH0 PUSH0 REVERT JUMPDEST PUSH0 PUSH0 REVERT JUMPDEST PUSH0 PUSH1 0x1F NOT PUSH1 0x1F DUP4 ADD AND SWAP1 POP SWAP2 SWAP1 POP JUMP JUMPDEST PUSH32 0x4E487B7100000000000000000000000000000000000000000000000000000000 PUSH0 MSTORE PUSH1 0x41 PUSH1 0x4 MSTORE PUSH1 0x24 PUSH0 REVERT JUMPDEST PUSH2 0x266 DUP3 PUSH2 0x220 JUMP JUMPDEST DUP2 ADD DUP2 DUP2 LT PUSH8 0xFFFFFFFFFFFFFFFF DUP3 GT OR ISZERO PUSH2 0x285 JUMPI PUSH2 0x284 PUSH2 0x230 JUMP JUMPDEST JUMPDEST DUP1 PUSH1 0x40 MSTORE POP POP POP JUMP JUMPDEST PUSH0 PUSH2 0x297 PUSH2 0x207 JUMP JUMPDEST SWAP1 POP PUSH2 0x2A3 DUP3 DUP3 PUSH2 0x25D JUMP JUMPDEST SWAP2 SWAP1 POP JUMP JUMPDEST PUSH0 PUSH8 0xFFFFFFFFFFFFFFFF DUP3 GT ISZERO PUSH2 0x2C2 JUMPI PUSH2 0x2C1 PUSH2 0x230 JUMP JUMPDEST JUMPDEST PUSH2 0x2CB DUP3 PUSH2 0x220 JUMP JUMPDEST SWAP1 POP PUSH1 0x20 DUP2 ADD SWAP1 POP SWAP2 SWAP1 POP JUMP JUMPDEST DUP3 DUP2 DUP4 CALLDATACOPY PUSH0 DUP4 DUP4 ADD MSTORE POP POP POP JUMP JUMPDEST PUSH0 PUSH2 0x2F8 PUSH2 0x2F3 DUP5 PUSH2 0x2A8 JUMP JUMPDEST PUSH2 0x28E JUMP JUMPDEST SWAP1 POP DUP3 DUP2 MSTORE PUSH1 0x20 DUP2 ADD DUP5 DUP5 DUP5 ADD GT ISZERO PUSH2 0x314 JUMPI PUSH2 0x313 PUSH2 0x21C JUMP JUMPDEST JUMPDEST PUSH2 0x31F DUP5 DUP3 DUP6 PUSH2 0x2D8 JUMP JUMPDEST POP SWAP4 SWAP3 POP POP POP JUMP JUMPDEST PUSH0 DUP3 PUSH1 0x1F DUP4 ADD SLT PUSH2 0x33B JUMPI PUSH2 0x33A PUSH2 0x218 JUMP JUMPDEST JUMPDEST DUP2 CALLDATALOAD PUSH2 0x34B DUP5 DUP3 PUSH1 0x20 DUP7 ADD PUSH2 0x2E6 JUMP JUMPDEST SWAP2 POP POP SWAP3 SWAP2 POP POP JUMP JUMPDEST PUSH0 PUSH1 0x20 DUP3 DUP5 SUB SLT ISZERO PUSH2 0x369 JUMPI PUSH2 0x368 PUSH2 0x210 JUMP JUMPDEST JUMPDEST PUSH0 DUP3 ADD CALLDATALOAD PUSH8 0xFFFFFFFFFFFFFFFF DUP2 GT ISZERO PUSH2 0x386 JUMPI PUSH2 0x385 PUSH2 0x214 JUMP JUMPDEST JUMPDEST PUSH2 0x392 DUP5 DUP3 DUP6 ADD PUSH2 0x327 JUMP JUMPDEST SWAP2 POP POP SWAP3 SWAP2 POP POP JUMP JUMPDEST PUSH0 DUP2 MLOAD SWAP1 POP SWAP2 SWAP1 POP JUMP JUMPDEST PUSH0 DUP3 DUP3 MSTORE PUSH1 0x20 DUP3 ADD SWAP1 POP SWAP3 SWAP2 POP POP JUMP JUMPDEST DUP3 DUP2 DUP4 MCOPY PUSH0 DUP4 DUP4 ADD MSTORE POP POP POP JUMP JUMPDEST PUSH0 PUSH2 0x3CD DUP3 PUSH2 0x39B JUMP JUMPDEST PUSH2 0x3D7 DUP2 DUP6 PUSH2 0x3A5 JUMP JUMPDEST SWAP4 POP PUSH2 0x3E7 DUP2 DUP6 PUSH1 0x20 DUP7 ADD PUSH2 0x3B5 JUMP JUMPDEST PUSH2 0x3F0 DUP2 PUSH2 0x220 JUMP JUMPDEST DUP5 ADD SWAP2 POP POP SWAP3 SWAP2 POP POP JUMP JUMPDEST PUSH0 PUSH1 0x20 DUP3 ADD SWAP1 POP DUP2 DUP2 SUB PUSH0 DUP4 ADD MSTORE PUSH2 0x413 DUP2 DUP5 PUSH2 0x3C3 JUMP JUMPDEST SWAP1 POP SWAP3 SWAP2 POP POP JUMP JUMPDEST PUSH0 PUSH20 0xFFFFFFFFFFFFFFFFFFFFFFFFFFFFFFFFFFFFFFFF DUP3 AND SWAP1 POP SWAP2 SWAP1 POP JUMP JUMPDEST PUSH0 PUSH2 0x444 DUP3 PUSH2 0x41B JUMP JUMPDEST SWAP1 POP SWAP2 SWAP1 POP JUMP JUMPDEST PUSH2 0x454 DUP2 PUSH2 0x43A JUMP JUMPDEST DUP2 EQ PUSH2 0x45E JUMPI PUSH0 PUSH0 REVERT JUMPDEST POP JUMP JUMPDEST PUSH0 DUP2 CALLDATALOAD SWAP1 POP PUSH2 0x46F DUP2 PUSH2 0x44B JUMP JUMPDEST SWAP3 SWAP2 POP POP JUMP JUMPDEST PUSH0 DUP2 SWAP1 POP SWAP2 SWAP1 POP JUMP JUMPDEST PUSH2 0x487 DUP2 PUSH2 0x475 JUMP JUMPDEST DUP2 EQ PUSH2 0x491 JUMPI PUSH0 PUSH0 REVERT JUMPDEST POP JUMP JUMPDEST PUSH0 DUP2 CALLDATALOAD SWAP1 POP PUSH2 0x4A2 DUP2 PUSH2 0x47E JUMP JUMPDEST SWAP3 SWAP2 POP POP JUMP JUMPDEST PUSH0 PUSH0 PUSH1 0x40 DUP4 DUP6 SUB SLT ISZERO PUSH2 0x4BE JUMPI PUSH2 0x4BD PUSH2 0x210 JUMP JUMPDEST JUMPDEST PUSH0 PUSH2 0x4CB DUP6 DUP3 DUP7 ADD PUSH2 0x461 JUMP JUMPDEST SWAP3 POP POP PUSH1 0x20 PUSH2 0x4DC DUP6 DUP3 DUP7 ADD PUSH2 0x494 JUMP JUMPDEST SWAP2 POP POP SWAP3 POP SWAP3 SWAP1 POP JUMP JUMPDEST PUSH32 0x44726166743A2000000000000000000000000000000000000000000000000000 DUP2 MSTORE POP JUMP JUMPDEST PUSH0 DUP2 SWAP1 POP SWAP3 SWAP2 POP POP JUMP JUMPDEST PUSH0 PUSH2 0x520 DUP3 PUSH2 0x39B JUMP JUMPDEST PUSH2 0x52A DUP2 DUP6 PUSH2 0x50C JUMP JUMPDEST SWAP4 POP PUSH2 0x53A DUP2 DUP6 PUSH1 0x20 DUP7 ADD PUSH2 0x3B5 JUMP JUMPDEST DUP1 DUP5 ADD SWAP2 POP POP SWAP3 SWAP2 POP POP JUMP JUMPDEST PUSH0 PUSH2 0x550 DUP3 PUSH2 0x4E6 JUMP JUMPDEST PUSH1 0x7 DUP3 ADD SWAP2 POP PUSH2 0x560 DUP3 DUP5 PUSH2 0x516 JUMP JUMPDEST SWAP2 POP DUP2 SWAP1 POP SWAP3 SWAP2 POP POP JUMP JUMPDEST PUSH32 0x4E487B7100000000000000000000000000000000000000000000000000000000 PUSH0 MSTORE PUSH1 0x22 PUSH1 0x4 MSTORE PUSH1 0x24 PUSH0 REVERT JUMPDEST PUSH0 PUSH1 0x2 DUP3 DIV SWAP1 POP PUSH1 0x1 DUP3 AND DUP1 PUSH2 0x5AF JUMPI PUSH1 0x7F DUP3 AND SWAP2 POP JUMPDEST PUSH1 0x20 DUP3 LT DUP2 SUB PUSH2 0x5C2 JUMPI PUSH2 0x5C1 PUSH2 0x56B JUMP JUMPDEST JUMPDEST POP SWAP2 SWAP1 POP JUMP JUMPDEST PUSH0 DUP2 SWAP1 POP DUP2 PUSH0 MSTORE PUSH1 0x20 PUSH0 KECCAK256 SWAP1 POP SWAP2 SWAP1 POP JUMP JUMPDEST PUSH0 PUSH1 0x20 PUSH1 0x1F DUP4 ADD DIV SWAP1 POP SWAP2 SWAP1 POP JUMP JUMPDEST PUSH0 DUP3 DUP3 SHL SWAP1 POP SWAP3 SWAP2 POP POP JUMP JUMPDEST PUSH0 PUSH1 0x8 DUP4 MUL PUSH2 0x624 PUSH32 0xFFFFFFFFFFFFFFFFFFFFFFFFFFFFFFFFFFFFFFFFFFFFFFFFFFFFFFFFFFFFFFFF DUP3 PUSH2 0x5E9 JUMP JUMPDEST PUSH2 0x62E DUP7 DUP4 PUSH2 0x5E9 JUMP JUMPDEST SWAP6 POP DUP1 NOT DUP5 AND SWAP4 POP DUP1 DUP7 AND DUP5 OR SWAP3 POP POP POP SWAP4 SWAP3 POP POP POP JUMP JUMPDEST PUSH0 DUP2 SWAP1 POP SWAP2 SWAP1 POP JUMP JUMPDEST PUSH0 PUSH2 0x669 PUSH2 0x664 PUSH2 0x65F DUP5 PUSH2 0x475 JUMP JUMPDEST PUSH2 0x646 JUMP JUMPDEST PUSH2 0x475 JUMP JUMPDEST SWAP1 POP SWAP2 SWAP1 POP JUMP JUMPDEST PUSH0 DUP2 SWAP1 POP SWAP2 SWAP1 POP JUMP JUMPDEST PUSH2 0x682 DUP4 PUSH2 0x64F JUMP JUMPDEST PUSH2 0x696 PUSH2 0x68E DUP3 PUSH2 0x670 JUMP JUMPDEST DUP5 DUP5 SLOAD PUSH2 0x5F5 JUMP JUMPDEST DUP3 SSTORE POP POP POP POP JUMP JUMPDEST PUSH0 PUSH0 SWAP1 POP SWAP1 JUMP JUMPDEST PUSH2 0x6AD PUSH2 0x69E JUMP JUMPDEST PUSH2 0x6B8 DUP2 DUP5 DUP5 PUSH2 0x679 JUMP JUMPDEST POP POP POP JUMP JUMPDEST JUMPDEST DUP2 DUP2 LT ISZERO PUSH2 0x6DB JUMPI PUSH2 0x6D0 PUSH0 DUP3 PUSH2 0x6A5 JUMP JUMPDEST PUSH1 0x1 DUP2 ADD SWAP1 POP PUSH2 0x6BE JUMP JUMPDEST POP POP JUMP JUMPDEST PUSH1 0x1F DUP3 GT ISZERO PUSH2 0x720 JUMPI PUSH2 0x6F1 DUP2 PUSH2 0x5C8 JUMP JUMPDEST PUSH2 0x6FA DUP5 PUSH2 0x5DA JUMP JUMPDEST DUP2 ADD PUSH1 0x20 DUP6 LT ISZERO PUSH2 0x709 JUMPI DUP2 SWAP1 POP JUMPDEST PUSH2 0x71D PUSH2 0x715 DUP6 PUSH2 0x5DA JUMP JUMPDEST DUP4 ADD DUP3 PUSH2 0x6BD JUMP JUMPDEST POP POP JUMPDEST POP POP POP JUMP JUMPDEST PUSH0 DUP3 DUP3 SHR SWAP1 POP SWAP3 SWAP2 POP POP JUMP JUMPDEST PUSH0 PUSH2 0x740 PUSH0 NOT DUP5 PUSH1 0x8 MUL PUSH2 0x725 JUMP JUMPDEST NOT DUP1 DUP4 AND SWAP2 POP POP SWAP3 SWAP2 POP POP JUMP JUMPDEST PUSH0 PUSH2 0x758 DUP4 DUP4 PUSH2 0x731 JUMP JUMPDEST SWAP2 POP DUP3 PUSH1 0x2 MUL DUP3 OR SWAP1 POP SWAP3 SWAP2 POP POP JUMP JUMPDEST PUSH2 0x771 DUP3 PUSH2 0x39B JUMP JUMPDEST PUSH8 0xFFFFFFFFFFFFFFFF DUP2 GT ISZERO PUSH2 0x78A JUMPI PUSH2 0x789 PUSH2 0x230 JUMP JUMPDEST JUMPDEST PUSH2 0x794 DUP3 SLOAD PUSH2 0x598 JUMP JUMPDEST PUSH2 0x79F DUP3 DUP3 DUP6 PUSH2 0x6DF JUMP JUMPDEST PUSH0 PUSH1 0x20 SWAP1 POP PUSH1 0x1F DUP4 GT PUSH1 0x1 DUP2 EQ PUSH2 0x7D0 JUMPI PUSH0 DUP5 ISZERO PUSH2 0x7BE JUMPI DUP3 DUP8 ADD MLOAD SWAP1 POP JUMPDEST PUSH2 0x7C8 DUP6 DUP3 PUSH2 0x74D JUMP JUMPDEST DUP7 SSTORE POP PUSH2 0x82F JUMP JUMPDEST PUSH1 0x1F NOT DUP5 AND PUSH2 0x7DE DUP7 PUSH2 0x5C8 JUMP JUMPDEST PUSH0 JUMPDEST DUP3 DUP2 LT ISZERO PUSH2 0x805 JUMPI DUP5 DUP10 ADD MLOAD DUP3 SSTORE PUSH1 0x1 DUP3 ADD SWAP2 POP PUSH1 0x20 DUP6 ADD SWAP5 POP PUSH1 0x20 DUP2 ADD SWAP1 POP PUSH2 0x7E0 JUMP JUMPDEST DUP7 DUP4 LT ISZERO PUSH2 0x822 JUMPI DUP5 DUP10 ADD MLOAD PUSH2 0x81E PUSH1 0x1F DUP10 AND DUP3 PUSH2 0x731 JUMP JUMPDEST DUP4 SSTORE POP JUMPDEST PUSH1 0x1 PUSH1 0x2 DUP9 MUL ADD DUP9 SSTORE POP POP POP JUMPDEST POP POP POP POP POP POP JUMP INVALID LOG2 PUSH5 0x6970667358 0x22 SLT KECCAK256 STOP PUSH11 0xC3FE9EC4F6046C3E0CEABB GASLIMIT 0xC2 0xFB CREATE2 EXTCODEHASH SWAP1 0xA9 0xAF 0xB4 0xB1 0xE4 DUP16 LOG4 0x2B SLT BALANCE 0xDB 0x2F 0xC PUSH5 0x736F6C6343 STOP ADDMOD SHR STOP CALLER "
				},
				"gasEstimates": {
					"creation": {
						"codeDepositCost": "431400",
						"executionCost": "466",
						"totalCost": "431866"
					},
					"external": {
						"addMessage(string)": "infinite",
						"messages(address,uint256)": "infinite",
						"previewMessage(string)": "infinite"
					}
				},
				"methodIdentifiers": {
					"addMessage(string)": "6a226a49",
					"messages(address,uint256)": "c45d9bea",
					"previewMessage(string)": "64682bf0"
				}
			},
			"storageLayout": {
				"storage": [
					{
						"astId": 6,
						"contract": "lecture3/MessageBoard.sol:MessageBoard",
						"label": "messages",
						"offset": 0,
						"slot": "0",
						"type": "t_mapping(t_address,t_array(t_string_storage)dyn_storage)"
					}
				],
				"types": {
					"t_address": {
						"encoding": "inplace",
						"label": "address",
						"numberOfBytes": "20"
					},
					"t_array(t_string_storage)dyn_storage": {
						"base": "t_string_storage",
						"encoding": "dynamic_array",
						"label": "string[]",
						"numberOfBytes": "32"
					},
					"t_mapping(t_address,t_array(t_string_storage)dyn_storage)": {
						"encoding": "mapping",
						"key": "t_address",
						"label": "mapping(address => string[])",
						"numberOfBytes": "32",
						"value": "t_array(t_string_storage)dyn_storage"
					},
					"t_string_storage": {
						"encoding": "bytes",
						"label": "string",
						"numberOfBytes": "32"
					}
				}
			},
			"userdoc": {
				"kind": "user",
				"methods": {},
				"version": 1
			}
		}
	}
}